:020000040800F2
:10000000F0070024E5030008BD4400083D43000854
:1000100095440008471E0008055000080000000035
:10002000000000000000000000000000034800087D
:10003000491E000800000000BF44000805480008F1
:10004000FF030008FF030008FF030008FF03000888
:10005000FF030008FF030008FF030008FF03000878
:10006000FF030008FF030008FF030008FF03000868
:10007000FF030008FF030008FF030008FF03000858
:10008000FF030008FF030008FF030008FF03000848
:10009000FF030008FF030008FF030008FF03000838
:1000A000FF030008FF030008FF030008FF03000828
:1000B000FF030008FF030008FF030008FF03000818
:1000C000FF030008FF030008FF030008FF03000808
:1000D000FF030008FF030008FF030008FF030008F8
:1000E000FF030008FF03000800000000FF030008F2
:1000F000FF030008FF030008FF030008FF030008D8
:10010000FF030008FF030008FF030008FF030008C7
:10011000FF030008FF030008FF030008FF030008B7
:10012000FF030008FF030008FF030008FF030008A7
:10013000FF030008FF030008FF030008FF03000897
:1001400000000000000000000000000000000000AF
:10015000FF030008FF030008FF030008FF03000877
:10016000FF030008FF030008FF030008FF03000867
:10017000FF030008FF030008FF030008FF03000857
:10018000FF030008FF030008FF030008FF03000847
:10019000FF030008FF030008FF030008FF03000837
:1001A000FF030008FF030008FF030008FF03000827
:1001B000FF030008FF030008FF030008FF03000817
:1001C000FF030008FF030008FF030008FF03000807
:1001D000FF030008FF030008FF030008FF030008F7
:1001E000FF030008FF030008FF030008FF030008E7
:1001F000FF030008FF030008FF030008FF030008D7
:10020000FF030008FF030008FF030008FF030008C6
:10021000FF030008FF030008FF030008FF030008B6
:10022000FF030008FF030008FF03000800000000B0
:10023000FF030008FF03000800000000FF030008A0
:10024000FF030008FF030008FF030008FF03000886
:10025000FF030008FF030008FF030008FF03000876
:10026000FF030008FF030008FF030008FF03000866
:10027000FF030008FF030008FF0300080000000060
:10028000FF030008FF030008FF0300080000000050
:1002900000000000FF03000800F002F800F092F8F0
:1002A0000AA090E8000C82448344AAF10107DA45D1
:1002B00001D100F087F8AFF2090EBAE80F0013F091
:1002C000010F18BFFB1A43F0010318472056000026
:1002D00040560000103A24BF78C878C1FAD85207B7
:1002E00024BF30C830C144BF04680C6070470000B0
:1002F0000023002400250026103A28BF78C1FBD82F
:10030000520728BF30C148BF0B6070476E2900F00C
:100310000D82702900F05783662905F0488265290F
:1003200005F04582672905F04282612905F0418286
:1003300003681B0A28BF41F08001692900F0BA81D7
:10034000642900F0B781752900F0B4816F2900F0AD
:10035000E482782900F02383E92900F07F82E429F0
:1003600000F07C82F52900F07982EF2900F0E1822B
:10037000F82900F022830368DB0928BF41F08001DF
:10038000632901F02980732901F02E80E32901F00F
:100390003980F32901F03E80002070471FB505F039
:1003A00001FA01F08DF804000020002105F0E4F9C5
:1003B000401C60600020002105F0C8F9E0601FBD0E
:1003C00010B510BD01F04EF81146FFF7E7FF05F03C
:1003D00037F901F02BF903B4FFF7F2FF03BC01F08A
:1003E00063F900000948804709480047FEE7FEE737
:1003F000FEE7FEE7FEE7FEE7FEE7FEE7FEE7FEE7D5
:1004000004480549054A064B70470000E5480008C6
:1004100099020008F0010024F0070024F0030024F2
:10042000F003002453EA020C00F069802DE9F04B40
:100430004FF00006002B1FBFB3FA83F503FA05F453
:1004400024FA05F65E4012BF1643B2FA82F502FAAC
:1004500005F4C5F120051EBF22FA05FC44EA0C0490
:10046000203556EA044C4FEA144418BF641C4FF080
:1004700000084FF00009904271EB030C39D30029BA
:1004800019BFB1FA81F701FA07F6B0FA80F700FA5E
:1004900007F6C7F120071EBF20FA07FC46EA0C0644
:1004A0002037B6FBF4FCA7EB0507103F07F01F0B46
:1004B000CBF120060CFA0BFB2CFA06F644BFB34630
:1004C0000026202FA4BF5E464FF0000B5BEA060C0F
:1004D00008BF4FF0010B19EB0B09ABFB027C48EB9B
:1004E0000608C01B06FB02CC0BFB03CC71EB0C0116
:1004F000C1E70B46024641464846BDE8F08B13B5BE
:100500004FF000004FF00001AFF30080BDE81C4049
:10051000704700007CB51D4616460C00009001D0C7
:100520002044401E074B7B442A46694601903046D2
:1005300000F015F905461CB10020694600F022F9CB
:1005400028467CBD6502000010B5431C02E010F88F
:10055000011B71B18107FAD14FF0013202C88C1A28
:100560008C4314EAC211F9D0C01A0A0603D0C01E87
:1005700010BDC01A10BD0A0401D0801E10BD0902B2
:10058000FCD0401E10BD4FF0000200B5134694464B
:100590009646203922BFA0E80C50A0E80C50B1F1DB
:1005A0002001BFF4F7AF090728BFA0E80C5048BFEF
:1005B0000CC05DF804EB890028BF40F8042B08BF8D
:1005C000704748BF20F8022B11F0804F18BF00F889
:1005D000012B704770477047704710B500F0C2FAA2
:1005E000006810BD10B5044600F0BCFA046010BDF0
:1005F00070B5044685690068C10601D5302600E063
:100600002026C00707D070BDD4E9012130469047AD
:10061000206A401C20626D1EF6D570BD70B5044680
:1006200085690078C00707D170BDD4E90121202079
:100630009047206A401C20626D1EF6D570BD096887
:100640004A0501D540B27047C905FCD500B27047D4
:1006500009684A0501D5C0B27047C905FCD580B20A
:10066000704770B50C460546012A05D028788006EB
:1006700000D5EA69002302E0012305E05B1C9342F8
:1006800002D2E05C0028F9D1A869E618C01AA86176
:10069000286A184428622846FFF7AAFF04E0D5E933
:1006A000012114F8010B9047B442F8D32846FFF714
:1006B000B5FF70BD2DE9F04106460024106875298C
:1006C000314616A510D0FFF7BAFF002802DA4042E3
:1006D00013A507E031688A0701D512A502E0490792
:1006E00004D511A5012401E0FFF7B2FF00210A2281
:1006F00006F1240709E0B0FBF2FCB0FBF2F302FBC9
:100700001C00303078541846491C0028F3D1234689
:100710002A463046BDE8F04100F06DBA0000000006
:100720002D0000002B00000020000000116802686E
:10073000006A530501D508700AE0D30501D5088089
:1007400006E0130603D5C217C1E9000200E0086005
:100750000120704701694A1C02610878704700B5A2
:100760008FB0CDE901310021059105497944CDE9EA
:1007700003101146684600F031F90FB000BD0000CB
:10078000E5FFFFFF0A6802F8010B0A607047D1E934
:1007900000239A4202D2531C0B6010707047000075
:1007A0002DE9FF5F15468A460446DFF8AC80F84421
:1007B0000027D8E900103E46CDE9001010E03AF8D5
:1007C00016106A4602A800F029FE411C07D02178C5
:1007D000890603D5E269391891420DD80744761C81
:1007E0002078800602D5E069B84205DDAE42E6DB3E
:1007F0003AF816000028E2D1A069C01BA06120468B
:10080000FFF7F6FED8E90010CDE90010002017E050
:100810003AF818106A4602A800F000FEB0F1FF3F57
:1008200081460BD000250DF1080B05E0D4E901212C
:100830001BF8050090476D1C4D45F7D308F10100EA
:10084000B0428046E4DB206A384420622046FFF74D
:10085000E5FEBDE8FF9F00003E5000002DE9F0419D
:100860008046D21D22F007020025D2E90002F529B8
:1008700015A614D0011E72F1000106DA0023D0EB98
:10088000030063EB020211A608E0D8F800108B0702
:1008900001D50FA602E0490701D50EA60125114694
:1008A000002408F1240704E000F060F930323A55E2
:1008B000641C50EA0102F7D12B46324621464046DD
:1008C000BDE8F04100F097B9000000002D000000E5
:1008D0002B0000002000000030B4002100F12404AF
:1008E00008E002F00705D208303542EA4372DB081F
:1008F0006554491C52EA0305F3D10468002310A291
:10090000250707D5A40600D421B1C46901230DA28F
:10091000641EC46130BC00F06EB910B504462146B7
:100920001068FFF795FE02462046BDE81040002300
:10093000D2E7D21D22F00701D1E90023CCE7000065
:100940000000000030000000F0B40D4601880905E9
:1009500002D5214C7C4402E01F4C7C440E34002123
:1009600000F1240608E002F00F071209E75D42EAF1
:1009700003721B097754491C52EA0307F3D102782A
:100980000023120704D5702D06D009B102231134BB
:100990002246F0BC00F02FB901231034F8E770B5FF
:1009A00004460D4621461068FFF752FE02462946CE
:1009B0002046BDE870400023C6E7D21D22F00703A1
:1009C000D3E90023C0E70368126843F02003036003
:1009D0000823C3610023B7E7A04E00002DE9F05FB4
:1009E000894604464FF0000ADFF874B1FB44C0F8B2
:1009F00020A02046E1688847002874D0252806D02A
:100A0000D4E901219047206A401C2062F1E70026CA
:100A10005F462046E16888472028054607DB312DE0
:100A200005D2781910F8200C08B10643F1E7B00799
:100A300001D526F00406C4F81CA00027C4F818A0AD
:100A40002A2D09D0284604F09DFC38B304EB870812
:100A5000303DC8F8185019E059F8041B204604EB43
:100A600087029161E1688847012F054618D1E06946
:100A7000002820DA26F020061DE0D8F8180000EB48
:100A8000800005EB40003038C8F818002046E168C7
:100A90008847054604F076FC0028EED1012F0AD0E5
:100AA0002E2D08D12046E16888477F1C0546022F7D
:100AB00046F02006C4DBA069002803DA404246F075
:100AC0000106A061F00701D026F010066C2D0BD0B6
:100AD000682D09D04C2D39D06A2D35D0742D35D0E4
:100AE0007A2D33D016E038E0E1682F46204688475B
:100AF000B842054609D16C2F26D04FF48060E168DA
:100B0000064320468847054604E06C2F1AD04FF470
:100B1000807006430DB3A5F14100192802D8203595
:100B200046F400664A462946204626604E46FFF7B0
:100B3000EDFB80B101280BD0F61D26F0070000F177
:100B4000080956E74020E4E78020D8E70020D6E7F0
:100B500006F104094DE7284652E7206ABDE8F09FF8
:100B6000304E0000004870478C01002430B5B0F1D1
:100B70000A024FEA900E71F100034EEA817EB0EB5B
:100B80000E0061EB91014FEA101E4EEA017E10EB60
:100B90000E0041EB11114FEA102E4EEA016E10EBE0
:100BA0000E0041EB11214FEA104E4EEA014E10EBC0
:100BB0000E0041EB1141401841F100014FEAD00015
:100BC00040EA41704FEAD10110EB80054FEA810401
:100BD00044EA907444EB01046D1944EB0404521B85
:100BE000A3414FF0000348BF0A3200D530BD401C7E
:100BF00041F1000130BD2DE9F0470D46994692467E
:100C0000044600F124080168880604D5E06921F053
:100C10001001216000E00120A84201DD471B00E037
:100C20000027A1697A1902EB0900081AA06120784F
:100C3000C00602D42046FFF7DBFC002608E0D4E91A
:100C400001211AF806009047206A401C761C206299
:100C50004E45F4DB2078C0060AD52046FFF7C8FCD5
:100C600006E0D4E9012130209047206A401C206230
:100C7000381EA7F10107F4DC07E0D4E9012118F8D8
:100C800005009047206A401C2062281EA5F101053E
:100C9000F3DC2046FFF7C2FC2078000602D50220D4
:100CA000BDE8F0870120FBE770472DE9FF4F0C46B8
:100CB0001E464FF0FF378BB0D2E90001DDF86080AF
:100CC0000A908A46C1F30A5505B93D4600210846F7
:100CD0004FF00000BAF1000F00F4400005DA00EB1D
:100CE00080004FF4400101EA50004FEA9059B9F1F9
:100CF000010F00DDB9460A9850EA4A000ED044F6CA
:100D00001050A5F2FF3545432F14B8F1000F1ED047
:100D10007542291E1EDDC9F100021CE0B8F1010F69
:100D20004FF0000001D0302103E0F24305E02154F0
:100D3000401CB042FBDB30460022002121540B99BD
:100D4000C1F80880C1E900200FB0BDE8F08FBD1BDD
:100D50006D1CDEE74A4600DA694206A800F0F4FBA3
:100D600006AB93E8070003AB83E8070050460A99F7
:100D700000F0A1FC8DE80700A0F500501F3800909E
:100D80000398002D0ADD42F21F014A460844002361
:100D900003A90390684600F00AFF09E0A0F500509F
:100DA0004A461F38002303A90390684600F014FF49
:100DB0008DE807000004000C03D04FF0FF3041081D
:100DC00000E01046B8F1000F03D000220092154653
:100DD0001EE0751E05D4FFF7C9FE303262556D1E48
:100DE000F9D5B3460122084302D000227F1C04E05B
:100DF0002078302801D100227F1E002A099784D054
:100E00001DE0112D07DAFFF7B1FE303262556D1C7F
:100E100050EA0102F5D1084302D00098C8B10EE0B3
:100E20000021681E05E0235C625C63542254401E6E
:100E3000491C8142F7DBAB46A81B401E09900020ED
:100E400004F80B000B98099AC0F80880C0E9002B41
:100E50007AE711264FF0000857E72DE9F04F884652
:100E60000446D21D22F0070191B0D1E90001CDE97D
:100E70000A0104F0C8F802460B98C00F01D02D20DB
:100E800007E02068810701D52B2002E0202101EA3C
:100E9000C000032A099001D0072A05DB034641461A
:100EA000204600F011FB0BE12078800601D5E069B7
:100EB00000E00620B8F1650F814606D0B8F1660F54
:100EC00018D0B8F1670F70D131E00020B9F1110FDF
:100ED000009001DB112301E009F101030AAA01A935
:100EE0000CA8FFF7E2FEDDE90C70002609F1010510
:100EF000834647E001204B4600904FF000470AAA86
:100F000001A90CA8FFF7D1FEDDE90DB00C995D46F3
:100F1000002610B909F101000D18B9EB050003D442
:100F2000C0F1FF3609F10105A5EB09002BE0B9F18D
:100F3000010F01DA4FF001090020B9F1110F009003
:100F4000484601DD112300E003460AAA01A90CA8C6
:100F5000FFF7ABFEDDE90C704D4600268346207896
:100F600000070AD4AB4500DA5D4601A8012D04DD77
:100F7000411911F8011C302907D04F4502DA17F149
:100F8000040F04DA012082460FE06D1EEEE7002F09
:100F900002DCED1B3E4403E0781CA84200DD7D1C12
:100FA000B81B00F1010A4FF000472078000703D476
:100FB000AA4501DB4FF0FF3A0021B7F1004F0DF1D8
:100FC00043088DF8431024D002202B23002F01DA90
:100FD0007F422D230A21021EA0F1010000DC5FB137
:100FE00097FBF1FC97FBF1F201FB1C7C17460CF11F
:100FF000300C08F801CDEEE7A8F10100037021885C
:10100000090501D5452100E06521A0F1010800F89E
:10101000011C09980FA9A1EB0807FF1D00B10120D1
:10102000411901EBEA70A1693844081A401EA06119
:101030002078C00602D42046FFF7DAFA099828B1D2
:10104000D4E901219047206A401C20622078C00624
:1010500022D52046FFF7CCFA1EE0002E04DBB34574
:1010600002DD01A8805D00E03020D4E90121904735
:10107000206A401C2062761CAAF101005FEA000A87
:101080000AD100F01DFAC0680168405CD4E9012172
:101090009047206A401C2062281EA5F10105DCDC77
:1010A00007E0D4E9012118F8010B9047206A401CA1
:1010B0002062381EA7F10107F3DC2046FFF7AEFAE5
:1010C000032011B041E600002DE9F04F04460D4623
:1010D000D21D22F0070089B0D0E900974846394672
:1010E00003F091FF0246F80F01D02D2307E020689E
:1010F000810701D52B2302E0202101EAC0038DF8EE
:1011000020300BB1012000E00020032A824601D0EC
:10111000072A04DB2946204600F0D6F93FE1207873
:10112000800601D40D2500E0E569C7F30A560D2DB0
:1011300049DA00214FEA175B08464FF00000002F04
:1011400000F4400007DA00EB80004FF4400100EBB0
:10115000D07001EA60008115012901DD4FF0FF31F7
:1011600000224FEA850CBCF1180F06D31346ACF1F0
:1011700018004FF08052C24003E04FF4801323FA6E
:101180000CF30CF10C0CBCF1200F04D3ACF1200CCF
:1011900009FA0CF001E007FA0CF000294FF00048C2
:1011A00001DD18B90FE00ED140450CD319EB02094F
:1011B0005F4121B9404502D19F4329EA0209BBEBB7
:1011C000175F00D0761C2088000502D57B48784444
:1011D00002E07A487844193808AA302302F80A3025
:1011E000037C0AF10101002E0AF1020A53546A46F7
:1011F00002DC4FF0300101E04FF031014FF0010807
:101200008DF8001002D0A6F2FF3603E059EA47013C
:1012100000D06B4E002D02DC2178090704D54FF079
:1012200002082E218DF80110C44600210BE0C7F3FF
:1012300003433F01C35C491C6D1E02F808300529B9
:1012400008F1010801DA002DF1DC00210CE000EBCF
:101250001973491C1B786D1E082902F808304FEAE3
:10126000091908F1010801DA002DF0DC21688B066C
:1012700002D516E0A8F10108E04505DD02EB080300
:1012800013F8013C302BF5D0B8F1000F09DD02EB6B
:10129000080313F8013C2E2B03D1090701D4A8F150
:1012A0000108002D05DD3E2102F808106D1E08F131
:1012B0000108407C002E02F8080008F1010804DA59
:1012C0002D20764202F8080002E02B2002F80800E8
:1012D0000A214FF47A70864208F101080BDB96FB75
:1012E000F0F3303302F8083096FBF0F308F1010810
:1012F00000FB136601E0642E0CDB642096FBF0F328
:10130000303302F8083096FBF0F308F1010800FBD7
:10131000136601E00A2E06DB96FBF1F0303002F88E
:10132000080008F1010896FBF1F001FB1060303075
:1013300002F80800A16908F1010808EB050202EBB8
:101340000A00081AA0612078C00602D42046FFF7E0
:101350004FF9216A08AE01EB0A00206204E0D4E9EB
:10136000012116F8010B9047BAF1010AF7D2207853
:10137000C00602D52046FFF73BF96E4609E016F895
:10138000010B3E280FD0D4E901219047206A401C70
:101390002062B8F10108F2D22046FFF73FF909B008
:1013A0000320BDE8F08F206A2844206203E0D4E9DE
:1013B0000121302090476D1EEBD3F8E77246000004
:1013C00002FCFFFF10B5436913B1AFF3008001E0E9
:1013D000FFF747F9012010BD127800F124010A70CF
:1013E00000224A700122EDE711684FF0FF32E9E771
:1013F00010B5436913B1AFF3008001E0FFF7D0F9F6
:10140000012010BD128800F1240182840022C284D0
:101410000122EDE711684FF0FF32E9E770B516469B
:101420000C46054600F044F8036893F801010128D2
:1014300006D0FF2C0FD8185D68B101202C7070BD4C
:10144000D3F807013246214603F207130344284626
:10145000BDE8704018474FF0FF3070BD004870473E
:101460008C0100247546FFF7F9FFAE46050069467A
:10147000534620F00700854618B020B5FEF7C0FFA0
:10148000BDE820404FF000064FF000074FF0000885
:101490004FF0000B21F00701AC46ACE8C009ACE806
:1014A000C009ACE8C009ACE8C0098D46704700002F
:1014B00010B500F005F8001D10BD00BFBD420000D2
:1014C00000487047AC0100242DE9F0411F46044656
:1014D00003260168072A01F4006004DB08B116A5A1
:1014E00005E016A503E008B115A500E015A521F05B
:1014F00010002060A069C01EA0610FB1401EA06155
:101500002046FFF775F84FB1D4E9012138469047DE
:10151000206A401C2062C01C206206E0206AFAE7B4
:10152000D4E9012115F8010B9047761EF8D2204628
:10153000FFF774F8BDE8F0814E414E006E616E0019
:10154000494E4600696E66002DE9F0478146164611
:101550008AB0354878440DC88DE80D00324878448B
:10156000801C03AC0DC884E80D0041F69B30084494
:10157000372190FBF1F290FBF1F5A5F1800501FB1D
:1015800012041B3C02D56442012000E00020DFF879
:1015900098A080460027FA44AAF1BE0A0EE0E007B0
:1015A0000AD03246684607EB470101230AEB810166
:1015B00000F012FB8DE8070064107F1C002CEED1B8
:1015C000194F7F44AE3F19E0E80715D007EB041030
:1015D0000DF1180A90E80E008AE80E00C068F0428B
:1015E00001D1981908903246012306A903A800F0FA
:1015F000F3FA03AB83E807006D10641C002DE3D100
:101600004FF0010332466946B8F1000F03A802D03B
:1016100000F0CDFA01E000F0DFFAC9E90001C9F8F5
:1016200008200AB0BDE8F0877C43000010B50446EE
:10163000AFF300802046BDE81040FEF7CCBE0000AE
:101640004FF0013C50F8042B51F8043B9A4215D15D
:10165000A2EB0C03934313EACC130BD150F8042BE9
:1016600051F8043B9A4209D1A2EB0C03934313EACD
:10167000CC13E7D04FF00000704700BFD01A01BA7A
:10168000B1FA81F101F0180122FA01F0CB40C1F169
:101690002001DBB2C0B2C01A2CFA01F3D11A914377
:1016A00011EAC311E6D1704701491820ABBEFEE72D
:1016B0002600020070475FEA400C08BF91F0000F5F
:1016C0004FEA8C234FEAC12243EA51514FEA1C50A2
:1016D00018BF00F5F0404FEA300018BF41F000415C
:1016E0005FEA6C5C00F02980BCF1FF3F08BF40F06E
:1016F00080407047130C06BF12044FF0100C4FF0DF
:10170000000C130E04BF12020CF1080C130F04BFDF
:1017100012010CF1040C930F04BF92000CF1020CA7
:10172000D30F04BF52000CF1010C11464FF0000220
:10173000A0F11F00A0EB0C00704711F0004F08BF94
:10174000704731F000413FF4D5AF0B0C06BF0904E0
:101750004FF0100C4FF0000C0B0E04BF09020CF1FF
:10176000080C0B0F04BF09010CF1040C8B0F04BF14
:1017700089000CF1020CCB0F04BF49000CF1010CE5
:10178000CCF12003A0EB0C0022FA03F302FA0CF2D6
:1017900041EA030100F10100704720F07F4C80EA2C
:1017A000030023F07F47ACEB070303F57C5300F005
:1017B000004003F1FF032DE980494FEA154B09B4BE
:1017C0004FEA144325EA0B4E24EA03480FF204269D
:1017D00006EB132749083E785FEA320203FB0667EF
:1017E000C7F5000707FB06F64FEA54374FEAD6461F
:1017F00006F1020607FB066CCCF1005C4FEA1C47C1
:101800002CEA074C07FB06F40CFB06F504EB154627
:101810004FEA961634BF00204FF000404FEAD13710
:1018200006FB07FC4FEA1C4C0CFB0BF7D21B03FB1F
:101830000CF761EB07010CFB0EF7B0EB074072EB06
:1018400017420CFB08F734BFA2EB0742B2EB07428A
:1018500061EB17414FEA0C444FEA910706FB07FC86
:101860004FEA1C4C0CFB0BF7B0EBC74072EB573246
:1018700003FB0CF734BFA2EBC742B2EBC74261EBEC
:1018800057310CFB0EF7B0EBC70072EB57720CFB35
:1018900008F734BFA2EBC702B2EBC70261EB577186
:1018A000039F4FEA816141EA921104EBCC044FEAB5
:1018B000D1374FEA826206FB07FC42EA90124FEAF8
:1018C00080604FEA1C4C0CFB0BF7D21B03FB0CF7A0
:1018D00061EB07010CFB0EF7B0EB074072EB174210
:1018E0000CFB08F734BFA2EB0742B2EB074261EBF7
:1018F00017414FEA8C554FEA910704EB9C2406FBF5
:1019000007FC4FEA1C4C0CFB0BF7B0EBC74072EB2B
:10191000573203FB0CF734BFA2EBC742B2EBC7420E
:1019200061EB57310CFB0EF7B0EBC70072EB57724F
:101930000CFB08F734BFA2EBC702B2EBC70261EBA6
:10194000577115EB4C254FEA816141EA92114FEA3C
:1019500082624FEAD13742EA901206FB07FC44F15B
:1019600000044FEA80604FEA1C4C0CFB0BF7D21BC3
:1019700003FB0CF761EB07010CFB0EF7B0EB074024
:1019800072EB17420CFB08F734BFA2EB0742B2EB35
:10199000074261EB174115EB1C154FEA813141EA13
:1019A00092414FEA823242EA90424FEA80304FEA57
:1019B0000C7644F1000448EA03434EEA0B484FF02A
:1019C000000EB2EB080C71EB030724BF62463946E8
:1019D0004EEB0E0E4FF0000B0018524149414BEBFD
:1019E0000B0BB2EB080C71EB03077BF1000B24BF70
:1019F000624639464EEB0E0E4FF0000B0018524176
:101A000049414BEB0B0BB2EB080C71EB03077BF17D
:101A1000000B24BF624639464EEB0E0E51EA020718
:101A200018BF46F0010616EB0E7655F1000254F190
:101A3000000103D5BDE88901BDE80088BDE8890142
:101A4000BDE80048B619524141EB0101A3F1010381
:101A5000704780807F7E7D7C7B7A7978777676751B
:101A60007473727171706F6E6E6D6C6C6B6A6A6993
:101A70006868676666656464636362616160605F2D
:101A80005F5E5E5D5D5C5C5B5B5A5A5959585857A6
:101A9000575656555555545453535252525151500E
:101AA00050504F4F4F4E4E4D4D4D4C4C4C4B4B4B61
:101AB0004A4A4A49494948484847474747464646A7
:101AC00045454544444444434343434242424241E2
:101AD0004141002B9C4630D477002BD01CB54FEAF7
:101AE000370703B44FF010004FF01001BAF1000FA8
:101AF00006D0BCF1000FDCBF40F0080040F0080148
:101B00004FF000000FBCBDE810400BF1010BBBF122
:101B1000010F08BF5FEA170722BF12F1010211F19E
:101B200001014FF0004143F1000300F0004043EA9F
:101B300000007047F9D35708D0E746EA064613F18C
:101B4000400F4FEA16461FDD13F1200FDFBF16438B
:101B50000A46002120335B42BED0C3F1200746EA8B
:101B6000064602FA07F74FEA164646EA0706C3F1A9
:101B7000200722FA03F201FA07F721FA03F14FF0E6
:101B8000000342EA0702A7E746EA020646EA0646DB
:101B90004FEA164646EA0106BCBF46EA0646360C40
:101BA0004FF000034FF000024FF0000194E72DE9E1
:101BB000804C9A46934670B491E8380007C831EAE1
:101BC000400C48BF34EA430C03D5FFF7E6FDFFF7AE
:101BD00080FFF0BCBDE8008C2DE9804C9A4693460E
:101BE00070B491E8380007C810F0804F08BF13F0B8
:101BF000804F03D100F005F8FFF76BFFF0BCBDE8A4
:101C0000008C20F07F4780EA030023F07F4C07EB35
:101C10000C03A3F57C5300F00040A3F1FE0392F007
:101C2000000F00F0B38095F0000F00F077802DE9F1
:101C300001494FEA11404FEA144621EA004800FBEF
:101C400006FC24EA064708FB06F607FB08F800FB3B
:101C500007F718EB06484CEB164C4FEA124B18EB03
:101C600007484FEA15464CEB174022EA0B4E0BFB98
:101C700006FC25EA06470EFB06F607FB0EFE0BFBED
:101C800007F71EEB064E4CEB164C4FF000061EEB12
:101C9000074E4CEB174B18EB0B0840F1000018EB0C
:101CA0000E0B58EB000840F100008F1A4FF00001B6
:101CB0003CBFC943661B14BFB5EB040C00213CBFFD
:101CC000C943F61B4FEA17444EEA8E0E27EA044535
:101CD0004FEA1C4704FB07622CEA074C05FB07F799
:101CE0000CFB05F604FB0CFC16EB074642EB174217
:101CF00016EB0C4642EB1C421BEB060658EB0202AD
:101D0000414146EA9E0601D5BDE80189B619524116
:101D100041EB0101A3F10103BDE801894FEA14453C
:101D20004FEA114724EA054621EA074C05FB07F470
:101D300006FB07F70CFB06F105FB0CFC11EB07415A
:101D400044EB17444FEA124711EB0C4144EB1C449F
:101D500022EA074C05FB07F206FB07F70CFB06F629
:101D600005FB0CFC16EB074642EB174216EB0C4644
:101D700042EB1C456A1854F1000148BF7047B61980
:101D8000524141EB0101A3F10103704795F0000FAF
:101D900037D04FEA11424FEA144721EA024624EABB
:101DA000074C02FB07F106FB07F70CFB06F402FBEE
:101DB0000CFC14EB074441EB17414FEA154714EBB9
:101DC0000C4441EB1C4125EA074C02FB07F506FBDE
:101DD00007F70CFB06F602FB0CFC16EB074645EB7F
:101DE000174516EB0C4645EB1C42121951F1000148
:101DF00048BF7047B619524141EB0101A3F10103FD
:101E000070474FEA14454FEA114724EA054621EA94
:101E1000074C05FB07F106FB07F70CFB06F24FF03A
:101E2000000605FB0CFC12EB074241EB174112EBDD
:101E30000C4251EB1C4148BF7047921841EB010125
:101E4000A3F101037047FEE7704700009FED130AFE
:101E500010B580ED030A80ED040A80ED050ADFED80
:101E6000100A9FED101ADFED101A80ED060A00220D
:101E7000C0EC030AF7EE000A002100EB02138A42CD
:101E800003EB810400FE801A01F10101042984EDB5
:101E9000071AF4DB521C042AEEDB10BD0000000020
:101EA0006F12833AA69B443B8FC2F53C10B50446A3
:101EB0002DED0E8BB0EE40ABB0EE419BB0EE428B01
:101EC000D0ED06CA90ED095AD0ED11DAB7EEEC0A62
:101ED00016EE2D5AD0ED0FBA94ED002A90ED05EADA
:101EE00090ED047AD0ED077A33EE400B75EE6B2A55
:101EF000B7EECE1AD0ED0E5A90ED16DA90ED14CA68
:101F0000D0ED036A56EE0D5AB7EEC00B72EE820AA0
:101F1000D4ED01CA35EECC3A34EE411B46EE207AC0
:101F200090ED0CBA4CEE86DA06EE007A29EE090B3B
:101F30000CEE86DAB7EEC11B73EE021A08EE080B40
:101F400046EE016A06EE21BAC4ED036A84ED047A16
:101F5000C4ED11DA84ED16DAB7EEC00BC4ED077AE2
:101F600084ED0CBA03F0E6F9F0EE400AB7EECA0BC6
:101F700003F086F8B7EEC00A9FED36CB20EE0C0BCF
:101F8000B7EEC0BB2AEE0A0B08EE080BB7EEC00B8B
:101F900003F0D0F9F0EE400AB7EEC90B03F070F889
:101FA000D4ED023AD4ED070A94ED0C1AB7EEC04A0C
:101FB00030EEA36AD4ED0F1A31EE230A94ED143AF1
:101FC00080EE867A24EE0C4BD4ED032A94ED042A9D
:101FD00094ED055A7BEE626AD4ED065AC1EE867A1C
:101FE00047EE262AC4ED032AC1EE003A07EEA65AB0
:101FF000F0EE416A83EE006AB7EEC40BB0EE604AC1
:10200000F0EE614A07EE604A43EEC16A47EEE14AEC
:1020100030EE420A03EE802A46EE005AF0EE433AD2
:10202000B7EEE20A84ED042A46EE433A84ED055AFF
:10203000C4ED065A84ED074AC4ED0F4AC4ED0C6A9C
:10204000C4ED143AB7EEC21ABDEC0E8BB0EE4F2BB6
:1020500010BD0000F8C1631ADCA54C4072B6FEE763
:1020600070B5044600F038F90546601C02D00448FB
:102070000078044400F030F9401BA042FAD370BD50
:102080005C0000242DE9F84F03247D4D00234FF020
:1020900001094FF0B04B4FF00F0AE9E009FA03F7DE
:1020A0003A4076D00E7906F00306012E01D0022EBA
:1020B00018D1D0F808C04FEA430ECE6804FA0EF8E3
:1020C0002CEA080C06FA0EF646EA0C068660D0F8F2
:1020D00004C00E792CEA070CC6F300169E4046EAAF
:1020E0000C0646600E79F643B6070BD0C6684FEA79
:1020F00043088F6804FA08FC26EA0C0607FA08F77A
:102100003743C7600E7906F00306022E12D1DE08AF
:102110000F694FEA437C00EB8606B646366A4FEA03
:10212000DC6C0AFA0CF807FA0CF726EA08063743C3
:10213000CEF820700F7906684FEA430807F00307CE
:1021400004FA08FC07FA08F726EA0C06374307608A
:102150004E6816F4403F1CD04A4E376847F00207DD
:10216000376036689F0706F00206009623F00306E4
:1021700006F1B046B6463F0FD6F80864DFF808818E
:102180000AFA07FC404526EA0C0603D14FF0000C82
:1021900041E06CE0DFF8F4C0604502D14FF0010C83
:1021A00039E0DFF8ECC0604502D14FF0020C32E0BC
:1021B000DFF8E0C0604502D14FF0030C2BE0DFF800
:1021C000D8C0604502D14FF0040C24E0DFF8CCC049
:1021D000604502D14FF0050C1DE0DFF8C4C060453A
:1021E00002D14FF0060C16E0DFF8B8C0604502D10E
:1021F0004FF0070C0FE0DFF8B0C0604502D14FF0A0
:10220000080C08E0DFF8A4C0604502D14FF0090CCB
:1022100001E04FF00A0C0CFA07FC4CEA060CCEF871
:1022200008C44F68DBF80060FF0226EA020600D50A
:1022300016435F46CBF80060D1F804C0DBF80460B9
:102240005FEA8C2C26EA020600D516437E606E6893
:102250004F6826EA0206BF0300D516436E602E685B
:102260004F6826EA0206FF0300D516432E605B1C6A
:102270000A6832FA03F67FF411AFBDE8F88F000068
:1022800080000058F444025800000258000402582C
:1022900000080258000C025800100258001402589E
:1022A00000180258001C025800200258002402584E
:1022B000426921EA02030A4043EA02418161704710
:1022C0000AB1816170470904FBE70000014800681A
:1022D000000C70470010005C0148806870470000E7
:1022E0005C000024024881680278114481607047D4
:1022F0005C000024032010B500F078F801F052F8DB
:102300000F4A104914681368C4F3032203F00F0343
:102310008A5CC95C02F01F0201F01F01D0400A4A2A
:1023200020FA01F11160094908600F2000F010F84F
:1023300008B1012010BD00F02BF8002010BD0000F6
:1023400018440258DE5700086C000024680000247E
:1023500070B50D4D04462878A0B14FF47A71B1FBE9
:10236000F0F00A490968B1FBF0F001F097FE48B9B6
:10237000102C07D200222146501E00F017F8002032
:102380006C6070BD012070BD5C00002468000024FA
:10239000054808B5016841F002010160006800F0DD
:1023A0000200009008BD0000F44402580E4BF0B447
:1023B0001B680D46C3F30223C3F10706042E00D9A0
:1023C0000426191D072901D2002300E0DB1E012489
:1023D00004FA06F19C40491E2940641E99401440AD
:1023E0002143F0BC02F03ABE0CED00E0064900F0DB
:1023F000070210B54FF6FF040868044B204040EA7E
:1024000002201843086010BD0CED00E00000FA0542
:10241000134970B50A68D243520705D5096801F01F
:102420000701814213D118E00A6822F00702024333
:102430000A60FFF751FF0A4D4FF47A760446083DD3
:1024400007E000BFFFF748FF001BB04201D90120A1
:1024500070BD2868C0438004F4D4002070BD000023
:102460000C48025810B500F057FF05490968054AA5
:10247000C1F30211515C01F01F01C84010BD000002
:1024800020440258DE570008494930B5484C0B1D1E
:102490000A68143409681D68246802F00303C5F350
:1024A0000012C1F30531C4F3CC04002914FB02F27D
:1024B00000EE102AF8EE400A75D03F4A9FED3D1A13
:1024C000B7EE000A6BB1DFED3D1A012B01D0022BF4
:1024D00064D002EE101A1168F8EE422A81EEA22AA8
:1024E00021E0334C283C23689B0612D5344B2468EA
:1024F00001EE901A1168C4F3C104F8EE612AE340BA
:1025000001EE903AC1F30801F8EE611A81EEA22AB9
:102510000BE001EE901ADFED2B2A00BFF8EE611AF6
:10252000116882EEA12AC1F3080101EE901A116828
:10253000F8EE611A40EE811A71EE800A62EE200A0E
:10254000C1F3462101EE101AB8EE411A31EE001A1D
:10255000C0EE811ABCEEE11A80ED001A1168C1F3D9
:10256000064101EE101AB8EE411A31EE001AC0EE23
:10257000811ABCEEE11A80ED011A1168C1F30661FF
:1025800001EE101AB8EE411A31EE000A80EE801A00
:10259000BCEEC10A80ED020A30BD04E001EE901AE3
:1025A000DFED092ABAE70021016041608160F3E7AD
:1025B0002844025800000039384402580024744A64
:1025C0000090D0030024744C001B374B494930B5B0
:1025D000484C0B1D0A681C3409681D68246802F009
:1025E0000303C5F30022C1F30551C4F3CC04002951
:1025F00014FB02F200EE102AF8EE400A75D03F4AB2
:102600009FED3D1AB7EE000A6BB1DFED3D1A012BCD
:1026100001D0022B64D002EE101A1168F8EE422AA3
:1026200081EEA22A21E0334C283C23689B0612D578
:10263000344B246801EE901A1168C4F3C104F8EE1B
:10264000612AE34001EE903AC1F30801F8EE611A05
:1026500081EEA22A0BE001EE901ADFED2B2A00BFDB
:10266000F8EE611A116882EEA12AC1F3080101EEA9
:10267000901A1168F8EE611A40EE811A71EE800A24
:1026800062EE200AC1F3462101EE101AB8EE411A9B
:1026900031EE001AC0EE811ABCEEE11A80ED001A8C
:1026A0001168C1F3064101EE101AB8EE411A31EE7D
:1026B000001AC0EE811ABCEEE11A80ED011A116811
:1026C000C1F3066101EE101AB8EE411A31EE000AAC
:1026D00080EE801ABCEEC10A80ED020A30BD04E033
:1026E00001EE901ADFED092ABAE70021016041608E
:1026F0008160F3E728440258000000394044025842
:102700000024744A0090D0030024744C001B374B03
:102710002DE9FE4F0546DFF8E48350F8081B00243E
:10272000F64FC943019005F12800264608F1240818
:10273000009008011DD4A86E50B1B0F5801F0CD0D8
:10274000B0F5001F0ED0B0F5401F1ED001240FE0E1
:10275000386840F40030386017E00198022101F039
:10276000AFFE03E00098022101F03AFF04000CD014
:1027700026462888C043C00523D4A86D05281ED24C
:10278000DFE800F00C11161B1B00AA6ED8F8001031
:1027900021F440111143C8F80010EAE7386840F40A
:1027A0000030386009E00198002101F089FE03E063
:1027B0000098002101F014FF044674B100E00124E8
:1027C00026462888C043800528D4E86D80281ED07E
:1027D0000CDC90B140280ED114E0AA6DD8F800109E
:1027E00021F007011143C8F80010EAE7C02813D010
:1027F000B0F5807F10D001240FE0386840F400303D
:10280000386009E00198002101F05AFE03E00098C9
:10281000002101F0E5FE04469CB126462888DFF839
:10282000DC92C04309F12C0940052CD4D5F8A8004E
:10283000B0F5800F20D00DDCA0B1B0F5001F0FD196
:1028400015E0EA6DD8F8001021F4E0711143C8F8E2
:102850000010E3E7B0F5C00F13D0B0F5000F10D0B3
:1028600001240FE0386840F40030386009E0019836
:10287000002101F025FE03E00098002101F0B0FEE8
:1028800004467CB126462888C04300052DD4D5F8DF
:10289000AC00B0F1007F21D00EDCA8B1B0F1807F98
:1028A00010D116E0D5F8A820D9F8001021F4600165
:1028B0001143C9F80010E6E7B0F1407F13D0B0F142
:1028C000806F10D001240FE0386840F40030386089
:1028D00009E00198002101F0F3FD03E000980021D8
:1028E00001F07EFE044674B126462868C04380018C
:1028F0001FD4E86CD8B110280FD0202812D030286F
:1029000015D0012414E0D5F8AC20D9F8001021F03E
:10291000E0611143C9F80010E7E7386840F400307F
:10292000386004E00198022101F0CAFD044674B148
:1029300026462888C043C0042BD4286EB0F5005F1B
:1029400020D00DDCA0B1B0F5805F0FD115E06B4851
:10295000EA6C2030016821F0300111430160E8E7A2
:10296000B0F5405F13D0B0F5804F10D001240FE0D8
:10297000386840F40030386009E00198002101F027
:102980009FFD03E00098002101F02AFE04468CB16F
:1029900026462888C043800429D4686EB0F5403F9D
:1029A00023D010DC08B3B0F5803F14D0B0F5003F61
:1029B0000FD115E02A6ED8F8001021F4E041114340
:1029C000C8F80010E5E7B0F5802F0ED0B0F5A02FC5
:1029D0000BD001240AE00198012101F071FD03E010
:1029E0000098012101F0FCFD044694B12646288898
:1029F000C04340042AD4D5F8B000B0F1405F23D0E2
:102A000010DC08B3B0F1805F14D0B0F1005F0FD1DB
:102A100015E06A6ED8F8001021F4E0211143C8F8DF
:102A20000010E4E7B0F1804F0ED0B0F1A04F0BD012
:102A300001240AE00198012101F042FD03E0009821
:102A4000012101F0CDFD044674B126462888C0431B
:102A500000041FD4286FD8B1B0F1805F0ED0B0F160
:102A6000005F10D0012414E0D5F8B020D9F8001090
:102A700021F0E0411143C9F80010E7E7386840F45D
:102A80000030386004E00198012101F019FD04468E
:102A900074B126462868C043C0011ED4A86CD0B1CA
:102AA00001280ED0022811D0032814D0012413E0ED
:102AB0002A6FD8F8001021F040511143C8F80010D7
:102AC000E8E7386840F40030386004E001980221FB
:102AD00001F0F6FC0446ACB126462868DFF81CB0CD
:102AE000C043ABF11C0B400252D40548016841F4CD
:102AF00080710160FFF7F0FB824611E02C44025820
:102B000000480258FA48AA6C016821F003011143F9
:102B10000160E2E7FFF7E0FBA0EB0A00642835D88C
:102B2000F4480068C005F5D58CBBDFF8C4A3B5F840
:102B3000B4100AF1240ADAF8000001F4407100F43C
:102B40004070884211D0DAF80010DAF8002021F441
:102B5000407142F48032CAF80020DAF8002022F4F2
:102B60008032CAF80020CAF80010D5F8B400B0F5D9
:102B7000807F1AD1FFF7B0FB029012E0FFF7ACFBA9
:102B80000299411A41F2883081420AD9032426462B
:102B90002878DFF85CA3C0430AF1080AC00721D0F7
:102BA0003CE0DAF800008007E8D5D5F8B410C1F3AE
:102BB0000120032858460DD0016821F47C510160A2
:102BC000B5F8B420DAF80010C2F30B021143CAF8CA
:102BD0000010DDE7C84A036802EA111223F47C51B1
:102BE0001143ECE7E86F182816D005DCA0B10828DF
:102BF00008D0102804D10AE020280DD028280BD0B6
:102C000001240AE00198012101F05AFC03E0009838
:102C1000012101F0E5FC044664B126462878C04352
:102C200080071ED4A86F062819D2DFE800F0160C22
:102C300011161616EA6FDAF8001021F03801114368
:102C4000CAF80010EAE70198012101F039FC03E01D
:102C50000098012101F0C4FC04467CB100E001248D
:102C600026462878C04340071FD4D5F8940006288C
:102C700019D2DFE800F0160C11161616AA6FDAF852
:102C8000001021F007011143CAF80010E9E701988C
:102C9000012101F015FC03E00098012101F0A0FCE6
:102CA0000446A4B100E0012426462878C0438006EB
:102CB0002BD4D5F89000B0F1405F24D011DC10B3D4
:102CC000B0F1805F15D0B0F1005F10D116E0D5F8FB
:102CD0009420D9F8001021F007011143C9F8001021
:102CE000E3E7B0F1804F0ED0B0F1A04F0BD001243C
:102CF0000AE00198002101F0E3FB03E000980221C3
:102D000001F06EFC044694B126462878C043400684
:102D10002BD4D5F89C00B0F5406F24D011DC10B353
:102D2000B0F5806F15D0B0F5006F10D116E0D5F872
:102D30009020DAF8001021F0E0411143CAF80010A9
:102D4000E3E7B0F5805F0ED0B0F5A05F0BD00124B3
:102D50000AE00198002101F0B3FB03E00098022192
:102D600001F03EFC044694B126462878C043000694
:102D70002BD4D5F8A000B0F5C04F24D011DC10B38F
:102D8000B0F5005F15D0B0F5804F10D116E0D5F842
:102D90009C20D9F8001021F4E0511143C9F800102B
:102DA000E3E7B0F5004F0ED0B0F5204F0BD0012473
:102DB0000AE00198002101F083FB03E00098022162
:102DC00001F00EFC044654B126462878C0430007A3
:102DD0001ED4D5F88400B0F5805F0AD00FE0D5F896
:102DE000A020D9F8001021F460411143C9F8001067
:102DF000EBE70098022101F0F3FB00B10126D5F8C2
:102E00008420DAF8001021F440511143CAF8001070
:102E10002878C043C00613D4D5F89800B0F5807F59
:102E200005D10098022101F0DBFB00B10126D5F8A5
:102E30009820D9F8001021F440711143C9F800100E
:102E40002868C043000316D4D5F8A40038B1B0F503
:102E5000803F09D0B0F5003F0BD001240AE0019873
:102E6000002101F02DFB03E00098022101F0B8FBE6
:102E700004468CB126462868C043400322D4D5F8C6
:102E80008800B0F5801F11D0B0F5001F13D0B0F549
:102E9000401F15D0012414E0D5F8A420D9F8001063
:102EA00021F440311143C9F80010E4E7386840F4D8
:102EB0000030386004E00098012101F091FB0446E5
:102EC0005CB126462868C043C00323D4286DA8B14E
:102ED000B0F5803F17D001241BE0D5F88820DAF840
:102EE000001021F440111143CAF80010EAE7000075
:102EF0004C44025800480258CFFFFF00386840F4A5
:102F00000030386004E00198022101F0D9FA04464B
:102F1000E4B126462868C043800005D40098022109
:102F200001F05EFB00B101262868C04380031BD47A
:102F3000D5F88000B0B1B0F5807F0FD0B0F5007F3C
:102F400010D0B0F5407F0DD001240CE05A482A6D16
:102F5000016821F4803111430160DBE7386840F4F7
:102F600000303860ECB326462868C043C00207D45E
:102F70006A6FD8F8001021F000411143C8F8001022
:102F80002868C043C00008D4D5F8B820DBF800108A
:102F900021F480411143CBF800102868C04380021F
:102FA00007D4EA6ED8F8001021F080711143C8F8F8
:102FB00000102868C04340000CD4DBF8001021F456
:102FC0000041CBF80010DBF80010D5F8BC2011430D
:102FD000CBF800102868C04308D437486A6D0168F0
:102FE00000E018E021F04051114301602868C0431F
:102FF000000208D4D5F88C20DAF8001021F4400142
:103000001143CAF8001028790024C04300F00100E1
:1030100020430AD00FE0D5F88020DAF8001021F420
:1030200040711143CAF800109EE70198002101F099
:1030300047FA00B106462879C04300F00200204359
:1030400005D10198012101F03BFA00B1064628792B
:10305000C04300F00400204305D10198022101F093
:103060002FFA00B106462879C04300F0080020433B
:1030700005D10098002101F0B3FA00B10646287985
:10308000C04300F01000204305D10098012101F059
:10309000A7FA00B106462879C04300F02000044397
:1030A00004D10098022101F09BFA00B916B1012069
:1030B000BDE8FE8F0020FBE74C4402582DE9F05F8D
:1030C00004000F467ED0DFF83882D8F8000000F008
:1030D0000F00B8420CD2D8F8001021F00F0139438C
:1030E000C8F80010D8F8000000F00F00B84269D10D
:1030F0002078844D40070AD52069296801F07001C5
:10310000884204D9296821F07001014329602078A0
:103110007C4E361D00070AD56069316801F07001E8
:10312000884204D9316821F0700101433160207870
:10313000C0060AD5A069316801F4E061884204D96B
:10314000316821F4E061014331602078DFF8B4B1E7
:1031500080060BF1080B0CD5E1695846DBF800201E
:1031600002F07002914204D9026822F070020A4310
:103170000260207880070AD5E068296801F00F0115
:10318000884204D9296821F00F0101432960207881
:10319000C0073ED05B49A2682868183920F47060E7
:1031A000104328606068022818D0032819D00968E5
:1031B000012819D0490700294ADADFF848A1AAF105
:1031C000080A00E044E0DAF8002022F00702024397
:1031D000CAF80020FFF780F8814612E009688903E9
:1031E000E9E709688901E6E7C905E4E7FFF774F84C
:1031F000A0EB090141F28830814202D90320BDE8E9
:10320000F09F6168DAF8000000F03800B0EBC10F01
:10321000ECD1207880070AD5E068296801F00F0119
:10322000884204D2296821F00F0101432960D8F8AF
:103230000010404601F00F01B9420BD9016821F09E
:103240000F0139430160006800F00F00B84201D05F
:103250000120D4E7207840070AD52069296801F0C9
:103260007001884204D2296821F07001014329606D
:10327000207800070AD56069316801F07001884242
:1032800004D2316821F07001014331602078C0061A
:103290000AD5A069316801F4E061884204D231683E
:1032A00021F4E06101433160207880060CD5E169AA
:1032B0005846DBF8002002F07002914204D2026806
:1032C00022F070020A43026000F06CF80E492A688E
:1032D0002B68C2F3032203F00F038A5CC95C02F07F
:1032E0001F0201F01F01D040084A20FA01F11160CD
:1032F0000749086007480068BDE8F05FFFF728B895
:103300000020005218440258DE5700086C000024C8
:10331000680000246000002430B500F043F80B4A38
:103320000B490C4B15681468C5F3032204F00F0415
:103330008A5C095D02F01F0201F01F01D040064ABD
:1033400020FA01F119601060084630BD1844025897
:10335000DE5700086C0000246800002400B5FFF769
:10336000DBFF05490968054AC1F30211515C01F010
:103370001F01C84000BD00001C440258DE57000871
:1033800000B5FFF7C9FF05490968054AC1F30221E5
:10339000515C01F01F01C84000BD00001C440258F0
:1033A000DE570008454970B545480968434B103B56
:1033B00011F0380208D00111082A03D0102A0BD0CE
:1033C000182A0BD0084670BD19688906FBD5196804
:1033D000C1F3C101C84070BD3A4870BD3749374D8F
:1033E00018310C1D24350A68096826682D6802F01A
:1033F000030406F00102C1F30511C5F3CC0515FB6A
:1034000002F200EE102AB8EE400AE9B32F4ADFEDCF
:103410002E0AB7EE001A6CB1DFED2D1A012C01D087
:10342000022C43D002EE101A1068F8EE422A81EE08
:10343000A22A1EE01C68A40611D51B6801EE901A92
:103440001168C3F3C103F8EE612AD84001EE900A77
:10345000C1F30800F8EE611A81EEA22A0BE001EE3A
:10346000901ADFED1C2A00BFF8EE611A106882EE98
:10347000A12AC0F3080001EE900AF8EE611A40EEAE
:10348000201A31EE810A00E015E022EE000A1068F1
:10349000C0F34620401C00EE900AF8EE600A80EE71
:1034A000201ABCEEC10A10EE100A70BD01EE901A8F
:1034B000DFED092AD8E7002070BD00001044025853
:1034C0000090D003001BB7000000003930440258C0
:1034D0000024744A0024744C001B374B2DE9F05F24
:1034E00004007DD0FF4F2078FE4D1837DFF8F493AD
:1034F000103DC00748D0D9F80000396800F0380006
:10350000102815D0182803D101F0030002280FD08D
:103510006068B0F5803F12D010B1B0F5A02F18D080
:10352000286820F480302860286820F4802009E092
:103530002868800328D560680028D2D024E0286855
:1035400040F480302860606888B1FEF7C5FE06460A
:1035500009E0286840F480202860F0E7FEF7BCFE10
:10356000801B64286FD828688003F7D50CE0FEF72D
:10357000B3FE064605E000BFFEF7AEFE801B6428E2
:10358000F0D828688003F7D4207841F20308D54E9C
:103590000C3E800769D5D9F80000396810F0380072
:1035A0000ED0182801D188070AD0E06890B32968A6
:1035B00021F0190101432960FEF78EFE824631E0B9
:1035C0002868400702D5E06800288AD0E1682868AA
:1035D00020F0190008432860FEF77EFE824607E0CF
:1035E000DFE000BFFEF778FEA0EB0A000228B9D8A2
:1035F00028684007F6D500BFFEF768FE40451BD897
:103600002069402812D0316821F47C3141EA003031
:1036100030602AE018E000BFFEF75EFEA0EB0A0073
:1036200002289FD828684007F6D5E5E7306820F4DF
:103630007C3040F40030EBE7207C316821F0FE4123
:1036400041EA0060E4E70DE1286820F0010028600D
:10365000FEF742FE824605E0FEF73EFEA0EB0A00C2
:1036600002288DD828684007F6D42078C0065DD59A
:10367000D9F80000DFF86CB2396800F03800ABF11F
:10368000040B082810D0182803D101F003000128EA
:103690000AD0E0690028286838D040F0800028600F
:1036A000FEF71AFE824623E02868C00523D5E069AC
:1036B000802876D11FE0206A202821D0316821F0AF
:1036C000F84141EA8060306030E000BF94F820109B
:1036D000DBF8002022F07C5242EA0161CBF80010B6
:1036E00024E000BFFEF7F8FDA0EB0A00022898D8FE
:1036F0002868C005F6D5FEF7E9FD4045E6D8DAE7CB
:10370000306820F0F84040F08040DCE720F0800096
:103710002860FEF7E1FD064605E000BFFEF7DCFD90
:10372000801B02289DD82868C005F7D420780007A0
:1037300029D56C486169643000298046016811D040
:1037400041F001010160FEF7C7FD064605E000BF3C
:10375000FEF7C2FD801B0228C9D8D8F800008007F8
:10376000F6D510E021F001010160FEF7B5FD064637
:1037700005E000BFFEF7B0FD801B022872D8D8F824
:1037800000008007F6D42078800623D5A0690028A1
:10379000286810D040F480502860FEF79DFD064652
:1037A00005E036E1FEF798FD801B02285AD828680C
:1037B0008004F7D50EE020F480502860FEF78CFDE1
:1037C000064604E0FEF788FD801B02284AD82868D8
:1037D0008004F7D4207840074FD5DFF80C81D8F863
:1037E000001041F48071C8F80010FEF775FD064620
:1037F00005E000BFFEF770FD801B642832D8D8F8C2
:103800000000C005F6D5374EA068603601280AD002
:1038100008B1052813D0306820F00100306030680E
:1038200020F0040002E0306840F001003060A06841
:1038300041F2883A90B1FEF74FFD80460AE03068C9
:1038400040F004003060EEE7FEF746FDA0EB080113
:10385000514507D830688007F6D50EE0FEF73CFDED
:10386000804607E084E000BFFEF736FDA0EB0801CC
:1038700051457DD830688007F6D4606AB0B3DFF870
:103880006480D9F8001008F120084FF6F87B08F1A1
:103890000409C1F3C2010329A8F1040A69D002286E
:1038A000286820F08070286003D0FEF715FD0446DC
:1038B00084E0FEF711FD064605E000BFFEF70CFDB3
:1038C000801B022877D828688001F7D4E26A40F28A
:1038D000F331386854F8283F884340EA021018430F
:1038E000386004E01044025800480258B5E0217BDB
:1038F000434622894FF4FE0C208A4FF0FE474902CE
:10390000267D521E401EA1F50071C2F308088AB23E
:10391000761E0CEA004042EA08020243504607EADB
:1039200006610A431A60DAF8002022F00102CAF8A0
:103930000020D9F80020266A22EA0B0242EAC602D9
:10394000C9F80020DAF80010A26921F00C01114337
:10395000CAF800100168E26921F002011143016018
:10396000016841F480310160016841F4003101E0F7
:1039700021E027E00160016841F4802101600168D5
:1039800041F001010160286840F080702860FEF776
:10399000A3FC044605E000BFFEF79EFC001B0228C6
:1039A00009D828688001F7D557E000BFFEF794FCDE
:1039B000001B022802D90320BDE8F09F286880017F
:1039C000F4D44AE039680128D8F8000021D0A26A6E
:1039D00001F0030393421CD1E26AC1F305118A424C
:1039E00017D1216BC0F30802491E8A4211D1616BC5
:1039F000C0F34622491E91420BD1A16BC0F306428F
:103A0000491E914205D1E16BC0F30660491E814217
:103A100001D00120D0E7A16C4E46D9F80000C0F3D8
:103A2000CC00814219D0DAF80000554620F00100A0
:103A3000CAF80000FEF750FC4FEA0007FEF74CFC06
:103A4000B842FBD0A26C306820EA0B0040EAC2000A
:103A50003060286840F0010028600020ACE70000DA
:103A60002DE9F047040029D0594A4FF00009206899
:103A7000584B594D9042C4F8289006D0984204D033
:103A8000A84202D0E1680F2918D8E1684FF0010A76
:103A9000E76B0831C9080AEB57167143904205D00D
:103AA000984203D0A84201D0082907D8904203D0F9
:103AB000984201D0A84204D1102902D90120BDE8C2
:103AC000F08794F8810020B9204684F8809000F0B7
:103AD00085F8022084F881002068016821F0010146
:103AE00001602068A1698268B1F1806F02F4F81169
:103AF00010D16268B2F5800F01D01AB10AE0A26B52
:103B000022B107E0A26BB2F1805F03D1026842F4F8
:103B1000805202606068400209D5E068072806D339
:103B20002068236D026822F480721A4303E0206843
:103B3000026822F480720260A66AE069E26B25687E
:103B40003043E3680A4310431843A860D4E90D02E8
:103B5000D4E90581636A25691843D4F820C00A4373
:103B6000266810432843A56DD4E90172D4E91231C7
:103B700040EA080040EA0C00384308431043184369
:103B80002843F060606868B92068816821F4C051FA
:103B900041F4006181602068816821F4C06141F4D2
:103BA000806181602068016D21F00101016560681C
:103BB000400206D52068626DC16821F000411143C2
:103BC000C160C4F8849084F881A0002077E70000E9
:103BD0000030014000380040003C004070B5B6B0F5
:103BE0000446142130A8FCF7CEFCC0216846FCF73F
:103BF000CAFC1E492068884235D10022811415462E
:103C00000224CDE9001202AA2020502382E81900E4
:103C100040261891CDE9080568460594CDE9064689
:103C2000FEF776FD08B1FEF719FA1148016841F474
:103C300080510160006800F4805035900C481038C5
:103C4000016841F001010160006830AA052100F01F
:103C500001003590E02082E83100CDE9335105487C
:103C600030A9FEF70FFA36B070BD000000300140F9
:103C7000F0440258000002582DE9F84F044600684D
:103C800016468A460021984694F8802000F1300BB1
:103C90000091012A0CD0012784F88070FEF71CFBEC
:103CA000814694F881000025012804D0022034E0E8
:103CB0000220BDE8F88FBAF1000F2DD066B3A168DD
:103CC0000420C4F864A0A4F8686084F88100C4F8F3
:103CD0008450A4F86A60E565A4F86050A4F86250C6
:103CE000B1F5C02F25676567206819D0C16821F438
:103CF000C02141F48021C160206841686FF30F0149
:103D0000314341602068016841F001010160606851
:103D1000B0F5800F09D00DE0012084F88050C8E78D
:103D2000016821F400610160E6E72068016841F460
:103D300000710160E0680F2823D948F2080600BF2F
:103D4000B4F86A0088B32068416931420BD0006B37
:103D5000616E0860606E001D6066B4F86A00401E07
:103D6000A4F86A00ECE7FEF7B7FAA0EB09014145B9
:103D700003D3B8F1FF3FE3D058E0B8F1000FDFD133
:103D800054E007281FD841E020684069C0070DD0E3
:103D9000BBF80000616E0880606E801C6066B4F83D
:103DA0006A00401EA4F86A000DE033E0FEF794FAC2
:103DB000A0EB0901414503D3B8F1FF3F03D035E043
:103DC000B8F1000F32D0B4F86A000028DCD121E04D
:103DD00020684169C9070CD090F83000616E087006
:103DE000606E401C6066B4F86A00401EA4F86A0069
:103DF0000CE0FEF771FAA0EB0901414503D3B8F1DD
:103E0000FF3F03D012E0B8F1000F0FD0B4F86A0002
:103E10000028DDD1204600F073FC84F88170D4F8CE
:103E2000840084F8805080B1012042E7204600F0F1
:103E300067FCD4F8840084F8805040F48070C4F8A3
:103E4000840084F88170032033E7009831E72DE97E
:103E5000FC5F0446006817468A460021994694F89C
:103E6000802000F1200B0191012A0DD04FF00108B4
:103E700084F88080FEF730FA064694F88100002529
:103E8000012804D0022034E00220BDE8FC9FBAF1F2
:103E9000000F2DD067B3A1680320C4F85CA0A4F87C
:103EA000607084F88100C4F88450A4F8627065667C
:103EB000A4F86850A4F86A50B1F5C02F656725676B
:103EC000206819D0C16821F4C02141F40031C160DB
:103ED000206841686FF30F01394341602068016831
:103EE00041F0010101606068B0F5800F09D00DE07C
:103EF000012084F88050C8E7016841F40061016046
:103F0000E6E72068016841F400710160E0680F286D
:103F10001CD820E02068416989070BD5E16D09684C
:103F20000162E06D001DE065B4F86200401EA4F877
:103F300062000BE0FEF7D0F9811B494503D3B9F1CC
:103F4000FF3F03D099E0B9F1000F30D0B4F8620020
:103F50000028DFD177E007282DD870E0206841697C
:103F600089071CD5B4F8621001290BD9E16B49B15E
:103F7000E16D09680162E06D001DE065B4F8620062
:103F8000801E09E0E06D0188ABF80010E06D801C38
:103F9000E065B4F86200401EA4F862000BE0FEF792
:103FA0009BF9811B494503D3B9F1FF3F03D064E07E
:103FB000B9F1000F61D0B4F862000028CED142E020
:103FC0002068416989072ED5B4F8621003290CD9FD
:103FD000E16B402909D9E16D09680162E06D001DBE
:103FE000E065B4F86200001F1AE0B4F8621001291D
:103FF0000CD9E16B51B1E06D0188ABF80010E06DB8
:10400000801CE065B4F86200801E09E0E16D09786B
:1040100080F82010E06D401CE065B4F86200401E9E
:10402000A4F862000BE0FEF757F9811B494503D362
:10403000B9F1FF3F03D020E0B9F1000F1DD0B4F873
:1040400062000028BCD100224B4608212046009681
:1040500000F0B4FB28B1D4F8840040F02000C4F88C
:104060008400204600F04CFB84F88180D4F8840062
:1040700084F8805080B1012007E7204600F040FB23
:10408000D4F8841084F8805041F48071C4F884100E
:1040900084F881800320F8E60198F6E6401EB0F12E
:1040A000807F10B501D3012010BD4FF0E024606186
:1040B0000F21601700F0D2FF0020A06107212161CD
:1040C00010BD30B590F88410012918D0012280F875
:1040D00084202421C0F888100022202401680B6865
:1040E0000D6823F0005325F001050D60426601685C
:1040F0000B60C0F8884080F88420104630BD022054
:1041000030BD70B5044690F8840001281DD001220E
:1041100084F884202420C4F8880020680568026898
:1041200022F0010202602068826822F060620A4385
:104130008260204600F044FC2268202100201560A7
:10414000C4F8881084F8840070BD022070BD70B57A
:10415000044690F8840001281DD0012284F88420B0
:104160002420C4F8880020680568026822F0010253
:1041700002602068826822F060420A438260204622
:1041800000F01EFC2268202100201560C4F8881071
:1041900084F8840070BD022070BD10B5040003D007
:1041A000D4F8880010B107E0012010BD002084F889
:1041B0008400204600F026F82420C4F888002068F7
:1041C000016821F001010160204600F0FFFC012898
:1041D000EBD0A06A10B1204600F014FC20684168C2
:1041E00021F4904141602068816821F02A018160BA
:1041F0002068016841F0010101602046BDE81040DF
:1042000000F064BC10B5B6B00446142130A8FCF729
:10421000BAF9C0216846FCF7B6F919492068884206
:104220002BD100201F9001210446CDE900106846E3
:10423000FEF76EFA08B1FDF711FF1248016841F070
:1042400010010160006800F0100035900D48103832
:10425000016841F001010160006830AB022100F00B
:10426000010035904FF4C060072283E81300064830
:1042700030A9CDE93342FDF705FF36B010BD00008F
:1042800000100140F0440258000002582DE9F843A4
:104290000446D0F88800984616460D46202802D0DD
:1042A0000220BDE8F883A5B19EB10021C4F89010AA
:1042B0002120C4F888001834FEF70EF8814654F81F
:1042C000100CA687E6872027183CB0F5805F02D047
:1042D00003E00120E5E7206910B12E46002510E03B
:1042E00000260EE08021204600F046FEC0B9DEB177
:1042F00016F8010B21688862B4F85600401EA4F835
:104300005600B4F856004B464FF00002CDF800803E
:104310000028E7D14FF04001204600F02DFE48B1C3
:10432000C4F888700320BCE735F8020B2168C0F39D
:104330000800E0E7C4F888700020B2E7FEE700005C
:10434000F0B587B014216846FCF71DF91D480168D7
:1043500041F004010160016801F004010591016868
:1043600041F080010160016801F080010591016860
:1043700041F00101016000680022134E022100F0AB
:10438000010005903046FDF79BFF104F00221021E1
:104390003846FDF795FF002469460125022000906C
:1043A000CDE9015430460394FDF76CFE10200090D7
:1043B000CDE90154694638460394FDF763FE07B022
:1043C000F0BD0000E0440258000802580000025806
:1043D00070B5154807224FF48005124E00212C01BC
:1043E000C0E9021201614FF0A043C0E90514C0E921
:1043F000073141629A008162C162C0E90D21C16347
:10440000016441648164C164016541658165C0E9FD
:104410000065FFF725FB002803D0BDE87040FDF7DD
:104420001DBE70BD003001407000002418480021FE
:1044300010B5164C0C224FF4E1330460C0E9013191
:10444000C160C0E904128161C1610162416281629F
:10445000FFF7A3FE08B1FDF701FE0D480021FFF7AD
:1044600076FE08B1FDF7FAFD09480021FFF749FE85
:1044700008B1FDF7F3FD0648FFF723FE002803D03F
:10448000BDE81040FDF7EABD10BD0000001001407E
:10449000F8000024FEE70CB58BB2090C92B25BBAAF
:1044A000ADF8003049BAADF8021052BA0099ADF833
:1044B00004200160BDF8041081800CBDFEE7704748
:1044C0002DE9F047454D044689464FF0000A28681B
:1044D000C04380070AD0414E283E306820F08060FB
:1044E0003060FDF7F9FE0746B04608E00120BDE860
:1044F000F08700BFFDF7F0FEC01B022867D8D8F890
:1045000000000001F6D4206829684FF4FE0721F46A
:104510007C313E0241EA00302860207AA389B4F859
:1045200004C040022D4D2D495B1E227CACF1010CD4
:104530001035091DA0F5007080B2521ECCF3080C96
:1045400007EA034340EA0C00184306EA02621043FC
:1045500028600868626920F0C000104308600A689B
:10456000A06922F0200202430A60281D0A6822F096
:1045700010020A6002684FF6F873E4699A4342EA4F
:10458000C40202600868B9F1000F40F010020A602E
:1045900011D00868B9F1010F11D040F40010086083
:1045A000D8F80000444640F08060C8F80000FDF7ED
:1045B00093FE05460DE0086840F40020EFE740F464
:1045C0008010ECE7FDF788FE401B022801D903208C
:1045D0008DE720680001F5D5504688E72844025849
:1045E0002DE9F047454D044689464FF0000A2868FA
:1045F000C04380070AD0414E283E306820F08050EA
:104600003060FDF769FE0746B04608E00120BDE8CE
:10461000F08700BFFDF760FEC01B022867D8D8F8FE
:1046200000008000F6D4208829684FF4FE0721F0AE
:104630007C713E0241EA00502860207AA389B4F8D8
:1046400004C040022D4D2D495B1E227CACF1010CB3
:104650001835091DA0F5007080B2521ECCF3080C6D
:1046600007EA034340EA0C00184306EA02621043DB
:1046700028600868626920F44060104308600A6896
:10468000A06922F4007202430A60281D0A6822F41D
:1046900080720A6002684FF6F873E4699A4342EA4E
:1046A000C40202600868B9F1000F40F480720A6029
:1046B00011D00868B9F1010F11D040F08070086086
:1046C000D8F80000444640F08050C8F80000FDF7DC
:1046D00003FE05460DE0086840F48000EFE740F473
:1046E0000000ECE7FDF7F8FD401B022801D903208C
:1046F0008DE720688000F5D5504688E728440258A9
:1047000010B5026840F26F335169946944F00804AF
:1047100094610268946944F010049461026814681A
:1047200024F001041460026814699C431461026857
:10473000936823F44043936090F88120042A0CD0BE
:104740008A060AD5D0F8842042F08002C0F884207E
:104750000268936943F02003936190F88120032A53
:104760000CD04A060AD5D0F8842042F00402C0F8E2
:1047700084200268936943F0400393618A050AD557
:10478000D0F8842042F00102C0F8842002689369C6
:1047900043F400739361C9050AD5D0F8841041F041
:1047A0000801C0F8841001688A6942F480728A6145
:1047B0000021A0F86210A0F86A1010BD2DE9F041A8
:1047C0001C4616460D460746DDF818800AE000BF75
:1047D000FDF782FDA0EB0800A04202D3601C01D0CF
:1047E0000BE054B13868406935EA000007D000207A
:1047F000B042EDD00020BDE8F0810320FBE70120AE
:10480000F6E77047FDF76EBD70B59CB04C21684669
:10481000FBF7B9FE202113A8FBF7B5FE0220FDF738
:10482000F7FD2D4900242D480A6822F001020A6094
:104830000A68026842F440420260026802F44042A0
:104840001B9202689204FCD5254A136843F00203C8
:104850001360126802F002021B92026842F44042A6
:10486000026002680A6842F001020A60096801F009
:1048700001011B9101688904FCD5022000901022DF
:104880000B92CDE90904F0230E90CDE90C304025C0
:104890000F900826129401216846CDE91064CDE9F5
:1048A0000315FEF71BFE08B172B6FEE74FF48062F7
:1048B0001A953F200321CDE9185213AACDE91665B8
:1048C00082E81300042113A8FEF7F8FB002801D0AA
:1048D00072B6FEE71CB070BD2C0400581848025890
:1048E000F44402582C48F0B52C4A016841F4700198
:1048F0000160106800F00F00072804D2106820F053
:104900000F00C01D106026490020254C10340B6894
:10491000244D43F001030B6020600B682B400B60BB
:10492000136803F00F03072B04D9136823F00F0358
:10493000DB1D13601A4C1C4A18341C4B261D371DF6
:104940002060174C1A4D28343060261D3860371D02
:1049500023603B1D35601C1D3A60251D2E1D18600F
:10496000331D22602860326018600A680C4B114CBD
:1049700022F4802260330A60186020686FF30F0011
:10498000B0F1005F03D20C490120C1F8080143F2E5
:10499000D2000A490860F0BD88ED00E00020005216
:1049A000004402587FEDF6EA800201010002020293
:1049B0000000FF010010005C008000510040005228
:1049C00030B5416EB9B101680D4B03F108048A6836
:1049D0008968C2F34262490F5D5C615C2D01B5FBE1
:1049E000F1F1A0F86A10995CA25C0901B1FBF2F147
:1049F000A0F8681030BD0121A0F86A10F8E70000A7
:104A0000CE57000890F82810C90706D00168C36A7D
:104A10004A6822F400321A434A6090F82810890745
:104A200006D50168036B4A6822F480321A434A6053
:104A300090F82810490706D50168436B4A6822F4AC
:104A400080221A434A6090F82810090706D50168A9
:104A5000836B4A6822F400421A434A6090F8281097
:104A6000C90606D50168C36B8A6822F480521A43CE
:104A70008A6090F82810890606D50168036C8A6858
:104A800022F400521A438A6090F82810490611D582
:104A90000168436C4A6822F480121A434A60416CF0
:104AA000B1F5801F06D10168836C4A6822F4C00208
:104AB0001A434A6090F82810090606D50168C26CAE
:104AC000486820F400201043486070472DE9F843FF
:104AD00000250446C0F89050FDF7FEFB8046206894
:104AE00020266FF07E470068000713D5002243465A
:104AF00031042046009700F03FFA58B1216851E890
:104B0000000F20F0800041E80002002AF6D1C4F82E
:104B1000886021E020680068400722D500224346D3
:104B20004FF480012046009700F026FAC8B12068B3
:104B300050E8001F21F4907140E80012002AF6D1DD
:104B40002068083050E8001F21F0010140E8001201
:104B5000002AF5D1C4F88C60032084F88450BDE8A5
:104B6000F883C4F88860C4F88C60E5662567002087
:104B700084F88450F3E7000010B5026852E8001F83
:104B800021F4907142E80013002BF6D10E4B02681D
:104B9000083252E8001F194042E80014002CF6D1F8
:104BA000C16E012908D1026852E8001F21F01001EE
:104BB00042E80013002BF6D100212022C0F88C20FF
:104BC000C166416710BD0000FEFFFFEF2DE9F04315
:104BD00004468068D84E87B0D84B2168D4E90427B2
:104BE000D4F81CC010430A68002547EA0C07384374
:104BF000324002430A602068E268416821F4405173
:104C0000114341602268A1699A4201D0206A0143A0
:104C10009768DFF82CC3CB4ECB4807EA0C070F434D
:104C200097602168676ACA6A22F00F023A43CA6233
:104C30002268B2420ED1006800F03800182873D004
:104C400047DCB8B3082879D010286FD178E028283D
:104C50007ED17BE0BD498A4209D1006800F007009F
:104C6000062875D2DFE800F0546A6C6E7072B8499D
:104C70008A4209D1006800F00700062868D2DFE800
:104C800000F0475D5F616365B2498A4209D10068FF
:104C900000F0070006285BD2DFE800F03A505254DB
:104CA0005658AD498A420BD1006800F0070006282B
:104CB0004ED200E010E0DFE800F02B4143454749C9
:104CC000A6498A420AD1006800F03800182839D075
:104CD000B7DD2028BBD13CE001203AE0A0498A4260
:104CE00009D1006800F00700062831D2DFE800F0A3
:104CF0001026282A2C2E9B498A420BD1006800F0EE
:104D00000700062824D2DFE800F003191B1D1F212D
:104D100000201EE09A421BD18B48001D006800F065
:104D20000700062814D202E00CE007E010E0DFE8FC
:104D300000F0030507090B0D02200AE0042008E03B
:104D4000082006E0102004E0202002E0402000E0DF
:104D500080208549DFF814829A42854A4FF4004347
:104D60004FEA21174FF000064ED110281AD006DC6A
:104D7000022809D004280BD008287CD10DE0202877
:104D80003ED0402877D13DE0FDF76CFB014610E0B6
:104D90006846FDF779FB01990BE003A8FDF716FCC7
:104DA000049906E01068800605D51068C0F3C100BC
:104DB000C140002970D0606A676838F8102007EB9E
:104DC0004703B1FBF2F0834255D8B0EB073F52D80E
:104DD000002308461946FBF725FB02467808130E08
:104DE000120243EA012110183A4671410023FBF7F1
:104DF00019FB604AA0F5407191423CD821688FE0D0
:104E00003946D8E71946D6E7D4F81CC04FF6EF79F3
:104E10009C4546D1082819D005DC58B101280CD092
:104E2000042875D10DE0102815D0202835D0402851
:104E30006ED134E0FEF792FA01E0FEF7A1FA0146E6
:104E400010E06846FDF720FB01990BE003A8FDF791
:104E5000BDFB049906E01068800604D51068C0F315
:104E6000C100C140C1B1636A606838F81330B1FB5A
:104E7000F3F1490000E04BE001EB5001B1FBF0F031
:104E8000A0F11001494543D84FF6F0732168C0F3F3
:104E900042021840104343E043E03946E3E7194635
:104EA000E1E7082819D005DC58B101280CD0042806
:104EB0002ED10DE0102815D020282BD0402827D146
:104EC0002AE0FEF74BFA01E0FEF75AFA014610E03D
:104ED0006846FDF7D9FA01990BE003A8FDF776FBC8
:104EE000049906E01068800604D51068C0F3C1007C
:104EF000C140B1B1636A606838F81330B1FBF3F1B7
:104F000001EB5001B1FBF0F0A0F11001494505D9CA
:104F1000012506E03946EDE71946EBE7216880B246
:104F2000C8600120A4F86A00A4F8680028466667F3
:104F3000A66707B0BDE8F083F369FFCF000C005807
:104F4000FFF4FF1100100140544402580044004097
:104F500000480040004C0040005000400014014058
:104F600000780040007C00400090D003B657000855
:104F700000440258FFFC0F002DE9F0479946174600
:104F80000E460446089D4FF000082FE0681C2DD007
:104F9000FDF7A2F9A0EB0900A84214D89DB1206842
:104FA0000168490722D5C169C94309070DD40825FD
:104FB00005622046FFF7E0FDC4F89050012084F818
:104FC0008480BDE8F0870320FBE7C069C04300058B
:104FD0000CD421684FF4006008622046FFF7CCFD36
:104FE0002021C4F8901084F88480ECE72068C06920
:104FF00036EA000004D00020B842C7D00020E0E725
:105000000120F9E7FEE703B401984100009850EA57
:10501000C12018BF04204A0D18BF40F0010040F223
:10502000FF72B2EB515F08BF40F00200012808BFD9
:10503000052002B070474100080218BF04200A0E84
:1050400018BF40F001004FF07F4232EA010108BF73
:1050500040F00200012808BF05207047090700281A
:105060004FEA116104DB00F1E02080F80014704782
:1050700000F00F0000F1E02080F8141D70470000E0
:1050800070B54FF068422DED048BF0EE408A18EEBB
:10509000900AB0EE608A18EE101A02EB4003B3F1EA
:1050A000654F3CBF02EB4102B2F1654F7DD200BFBC
:1050B000C0F3C753C1F3C7529A1A1B2A09DD10F077
:1050C000004F14BF9FED830A9FED830ABDEC048B54
:1050D00070BD12F11A0F36DA11F0004F09D010F03E
:1050E000004F0CBF9FED7D0A9FED7D0ABDEC048B48
:1050F00070BD88EE889A19EE100AFFF79CFF04280D
:1051000008BF00F037F918EE900AFFF794FF054644
:1051100018EE100AFFF78FFF044619EE100AFFF78A
:105120008AFF042D18BF052D08D1042C18BF052CAB
:1051300004D1002804BF0220FBF754FAB0EE490A5C
:10514000BDEC048B70BD4200B2EB410F3AD910F0B8
:10515000004F19BFDFED630A9FED630ADFED630ABD
:105160009FED630AB0EE481A0A46B1EE688A80F0F5
:105170000041F0EE418A10460A1A5200B2F1807FD7
:1051800034D2484010F0004FDFED5A1A9FED5A2AF2
:105190001DBF9FED5A1A70EEE10A30EE420A9FEDF4
:1051A000581A08BF70EEA10A00E040E008BF30EED8
:1051B000020AB0EE682A01EE482A08EE818AC2EEA1
:1051C000081A15E011F0004F04BF9FED4E0AF0EEF3
:1051D000400AD1D010F0004F19BFDFED4B0A9FED10
:1051E0004B0ADFED4B0A9FED4B0AC5E7C8EE881A64
:1051F00021EEA11A9FED482ADFED482A41EE022A4E
:105200009FED472A01EE222ADFED462A41EE022ACF
:105210009FED452ABDEC048B01EE222A21EE811A76
:1052200001EE020A30EE210A30EE200A70BD4FF086
:105230007F42B2EB400F28BFB2EB410F09D2F0EE34
:10524000480AB0EE680ABDEC048BBDE8704000F07F
:105250008EB840EA01035B0008BF41F0FF410BD06C
:10526000B2EB400F08BFB2EB410F08D120F08040F5
:1052700008EE900A21F0804108EE101A18E7B2EB10
:10528000400F12BF5FEA410340F0FF4001F00041D0
:105290003FF40EAFB2EB410F12BF5FEA400200F0E5
:1052A000004041F0FF413FF403AF4A0092EA40035F
:1052B0003FF5FEAE002AACBF9FED1C0A9FED1C0A15
:1052C00068EE808A28EE008A18EE900A18EE101A0E
:1052D000EEE60000DB0FC9BFDB0FC93FDB0F494023
:1052E000DB0F49C00000C9BF22AAFDB90000C93FB9
:1052F00022AAFD390060ED3EC30ACE37000000BF90
:105300000000003F00000000000049C022AA7DBA52
:105310000000494022AA7D3A2DAD65BD8FB8D53D2C
:105320000FB511BE61C84C3EA8AAAABE0000804FAE
:105330000000802F10B52DED028BB1EEC08A18EE63
:10534000100A20F00040C0F1FF40C00F0AD010EE5C
:10535000100A20F00040C0F1FF40C00F04BF012040
:10536000FBF740F9B0EE480ABDEC028B10BD30EE01
:10537000200A70479FED020A20EE000A70470000E5
:105380000000001030380A2801D2012070470020A8
:1053900070470021762010B500F036F90121112068
:1053A00000F032F90320FCF75BFE0121762000F0CB
:1053B0002BF902217A2000F027F90021762000F055
:1053C00023F94021162000F01FF9652000F0F4F8C1
:1053D00000210446652000F017F90021602000F04C
:1053E00013F90221612000F00FF96520214600F039
:1053F0000BF963215F2000F007F90021762000F00F
:1054000003F93621142000F0FFF80021762000F087
:10541000FBF8652000F0D0F840F00401652000F0B2
:10542000F3F80021762000F0EFF8502000F0C4F8E7
:1054300040F04601502000F0E7F80021762000F00F
:10544000E3F84F2000F0B8F840F026014F2000F0BC
:10545000DBF80021762000F0D7F84E2000F0ACF801
:1054600020F0200040F00F014E2000F0CDF8BDE804
:1054700010400120FCF7F4BD1CB5684600F02CF884
:10548000BDF90000BDF9021001EE100A03EE101A7A
:10549000BDF904209FED0C0B01EE902AB8EEC14B34
:1054A000B8EEC33BB8EEE11B9FED092B24EE004B99
:1054B00023EE003B21EE005B24EE020B23EE021BE9
:1054C00025EE022B1CBD0000000000000000103F74
:1054D0001F85EB51B89E23401CB5062204461F20B1
:1054E000694600F043F8DDE900122046FEF7D3FFDD
:1054F0001CBD1CB5062204462520694600F036F87E
:10550000DDE900122046FEF7C6FF1CBD1CB568464B
:10551000FFF7EFFFBDF90000BDF9021001EE100A20
:1055200003EE101ABDF904209FED0C0B01EE902A3A
:10553000B8EEC14BB8EEC33BB8EEE11B9FED092BB3
:1055400024EE004B23EE003B21EE005B24EE020B29
:1055500023EE021B25EE022B1CBD00000000000004
:105560000000003F0000000000407F40F8B5104EF2
:1055700040F0800014460D4600228DF800001021F6
:105580003046FCF79DFE4FF0FF370A4801223B46AC
:105590006946FEF75CFC07483B4622462946FEF773
:1055A0006BFB012230461021FCF78AFEF8BD00009B
:1055B00000000258700000247CB5114C002140F01E
:1055C00080000A468DF8001010218DF80400204656
:1055D000FCF776FE4FF0FF350A4801222B4601A961
:1055E000FEF735FC074801222B466946FEF744FBCF
:1055F000012220461021FCF763FE9DF800007CBDCF
:10560000000002587000002438B50B4C00228DF8C1
:10561000000020468DF801101021FCF751FE0748CC
:1056200002224FF0FF336946FEF711FC01222046AB
:105630001021FCF745FE38BD000002587000002420
:105640002DED0A8B84B0FCF755FEFFF7DDF8FEF771
:1056500077FEFEF7EBFEFEF7BBFEFFF79AFE224851
:10566000FCF7F4FB102121A000F058F8FCF734FE01
:10567000254D04469FED22CBFCF72EFE001B00EECD
:10568000100AB8EE400B80EE0CBBFFF73FFFB0EE08
:10569000428BB0EE40ABB0EE419BFFF7EDFEB7EEB4
:1056A000CB6B1148B0EE485BB0EE494BB0EE4A3BD5
:1056B000FCF7FCFBB0EE428BB0EE409BB0EE41AB92
:1056C000FCF70AFE8DED028B8DED00AB53EC192B30
:1056D00004460EA000F022F802212846FCF7E8FD5F
:1056E0000520FCF7BDFCC7E70000002448656C6C92
:1056F0006F20576F726C643A2564210A0000000025
:105700000000000000408F4000080258416E6C67A6
:10571000653A25662C25662C25660A000FB4802183
:1057200000B5A1B023AB6846229AFAF7F3FE6846AB
:10573000FAF70AFF82B204484FF0FF336946FEF7DA
:10574000A5FD21B05DF814FBF800002410B5002978
:105750000AD00878002807D005487844FBF770FF86
:10576000002801D0002010BD0248784410BD000080
:10577000B2010000AA01000010B500290AD0087883
:10578000002807D005487844FBF75AFF002801D0CD
:10579000002010BD0248784410BD0000A2010000A6
:1057A0009A0100004FF04070E1EE100A7047FBF7DD
:1057B00054BBFBF789BC010002000400060008008E
:1057C0000A000C00100020004000800000010101D0
:1057D00001030701000008040204080101010000A0
:1057E0000000010203040102030406070809000087
:1057F000000000000000000030313233343536370D
:105800003839414243444546403058003031323304
:105810003435363738396162636465664030780004
:105820000400000800000000000000020001000069
:10583000103031323334353637383961626364655C
:10584000667870003031323334353637383941427A
:10585000434445465850000002400000000000A0AC
:105860000000000005400000000000C8000000002B
:105870000C4000000000409C0000000019400000A7
:105880000020BCBE0000000034400000BFC91B8ED9
:1058900000000004B5400000504BCFD06607E2CFB7
:1058A000010000006C4100003E8251AADFEEA734E7
:1058B00001000000D9420000DCB5A0E23A301F9799
:1058C000FFFFFFFFB4450000FD25A0C8E9A3C14FBD
:1058D000FFFFFFFFFF3F000000000080000000000E
:1058E000FF3F00000000008000000000385A000860
:1058F0000000002470000000D4020008A85A00082C
:105900007000002480070000F00200081C00000066
:1059100043000000F8FFFFFF0C0000000E00000035
:105920000F0000002E0000001001000043000000E6
:10593000F8FFFFFF004040404040404040404141B0
:105940004141414040404040404040404040404054
:1059500040404040400502020202020202020202EE
:1059600002020202022020202020202020202002EB
:10597000020202020202909090909090101010107B
:105980001010101010101010101010101010101017
:1059900002020202020288888888888808080808AB
:1059A0000808080808080808080808080808080877
:1059B000020202024000000000000000000000009F
:1059C00000000000000000000000000000000000D7
:1059D00000000000000000000000000000000000C7
:1059E00000000000000000000000000000000000B7
:1059F00000000000000000000000000000000000A7
:105A00000000000000000000000000000000000096
:105A10000000000000000000000000000000000086
:105A20000000000000000000000000000000000076
:105A300000000000000000006F12833AA69B443B68
:105A40008FC2F53C000000000000000000000000D4
:105A50000000000000000000000000000000000046
:105A60000000000000000000000000000000000036
:105A70000000000000000000000000000000000026
:105A80000000000000000000000000000000000016
:105A900000000000010000001000000000000000F5
:085AA0000090D0030090D00338
:040000050800029954
:00000001FF
